{
  "_format": "hh3-artifact-1",
  "contractName": "RockPaperScissors",
  "sourceName": "contracts/RockPaperScissors.sol",
  "abi": [
    {
      "inputs": [],
      "stateMutability": "nonpayable",
      "type": "constructor"
    },
    {
      "anonymous": false,
      "inputs": [
        {
          "indexed": true,
          "internalType": "uint256",
          "name": "gameId",
          "type": "uint256"
        },
        {
          "indexed": true,
          "internalType": "address",
          "name": "player1",
          "type": "address"
        },
        {
          "indexed": false,
          "internalType": "bytes32",
          "name": "commitment",
          "type": "bytes32"
        }
      ],
      "name": "GameCreated",
      "type": "event"
    },
    {
      "anonymous": false,
      "inputs": [
        {
          "indexed": true,
          "internalType": "uint256",
          "name": "gameId",
          "type": "uint256"
        }
      ],
      "name": "GameForfeited",
      "type": "event"
    },
    {
      "anonymous": false,
      "inputs": [
        {
          "indexed": true,
          "internalType": "uint256",
          "name": "gameId",
          "type": "uint256"
        },
        {
          "indexed": false,
          "internalType": "uint8",
          "name": "winner",
          "type": "uint8"
        }
      ],
      "name": "GameResolved",
      "type": "event"
    },
    {
      "anonymous": false,
      "inputs": [
        {
          "indexed": true,
          "internalType": "uint256",
          "name": "gameId",
          "type": "uint256"
        },
        {
          "indexed": true,
          "internalType": "address",
          "name": "player",
          "type": "address"
        },
        {
          "indexed": false,
          "internalType": "uint8",
          "name": "move",
          "type": "uint8"
        },
        {
          "indexed": false,
          "internalType": "bytes32",
          "name": "salt",
          "type": "bytes32"
        }
      ],
      "name": "MoveRevealed",
      "type": "event"
    },
    {
      "anonymous": false,
      "inputs": [
        {
          "indexed": true,
          "internalType": "uint256",
          "name": "gameId",
          "type": "uint256"
        },
        {
          "indexed": true,
          "internalType": "address",
          "name": "player2",
          "type": "address"
        },
        {
          "indexed": false,
          "internalType": "uint8",
          "name": "move2",
          "type": "uint8"
        },
        {
          "indexed": false,
          "internalType": "uint256",
          "name": "revealDeadline",
          "type": "uint256"
        }
      ],
      "name": "PlayerJoined",
      "type": "event"
    },
    {
      "inputs": [],
      "name": "REVEAL_TIMEOUT",
      "outputs": [
        {
          "internalType": "uint256",
          "name": "",
          "type": "uint256"
        }
      ],
      "stateMutability": "view",
      "type": "function"
    },
    {
      "inputs": [
        {
          "internalType": "bytes32",
          "name": "commitment",
          "type": "bytes32"
        }
      ],
      "name": "createGame",
      "outputs": [
        {
          "internalType": "uint256",
          "name": "",
          "type": "uint256"
        }
      ],
      "stateMutability": "nonpayable",
      "type": "function"
    },
    {
      "inputs": [],
      "name": "deployer",
      "outputs": [
        {
          "internalType": "address",
          "name": "",
          "type": "address"
        }
      ],
      "stateMutability": "view",
      "type": "function"
    },
    {
      "inputs": [
        {
          "internalType": "uint256",
          "name": "gameId",
          "type": "uint256"
        }
      ],
      "name": "forfeitGame",
      "outputs": [],
      "stateMutability": "nonpayable",
      "type": "function"
    },
    {
      "inputs": [],
      "name": "gameCounter",
      "outputs": [
        {
          "internalType": "uint256",
          "name": "",
          "type": "uint256"
        }
      ],
      "stateMutability": "view",
      "type": "function"
    },
    {
      "inputs": [
        {
          "internalType": "uint256",
          "name": "",
          "type": "uint256"
        }
      ],
      "name": "games",
      "outputs": [
        {
          "internalType": "uint256",
          "name": "gameId",
          "type": "uint256"
        },
        {
          "internalType": "address",
          "name": "player1",
          "type": "address"
        },
        {
          "internalType": "address",
          "name": "player2",
          "type": "address"
        },
        {
          "internalType": "enum RockPaperScissors.GameStatus",
          "name": "status",
          "type": "uint8"
        },
        {
          "internalType": "bytes32",
          "name": "player1Commitment",
          "type": "bytes32"
        },
        {
          "internalType": "uint8",
          "name": "player1Move",
          "type": "uint8"
        },
        {
          "internalType": "uint8",
          "name": "player2Move",
          "type": "uint8"
        },
        {
          "internalType": "uint8",
          "name": "winner",
          "type": "uint8"
        },
        {
          "internalType": "uint256",
          "name": "createdAt",
          "type": "uint256"
        },
        {
          "internalType": "uint256",
          "name": "revealDeadline",
          "type": "uint256"
        }
      ],
      "stateMutability": "view",
      "type": "function"
    },
    {
      "inputs": [
        {
          "internalType": "uint256",
          "name": "gameId",
          "type": "uint256"
        }
      ],
      "name": "getGame",
      "outputs": [
        {
          "components": [
            {
              "internalType": "uint256",
              "name": "gameId",
              "type": "uint256"
            },
            {
              "internalType": "address",
              "name": "player1",
              "type": "address"
            },
            {
              "internalType": "address",
              "name": "player2",
              "type": "address"
            },
            {
              "internalType": "enum RockPaperScissors.GameStatus",
              "name": "status",
              "type": "uint8"
            },
            {
              "internalType": "bytes32",
              "name": "player1Commitment",
              "type": "bytes32"
            },
            {
              "internalType": "uint8",
              "name": "player1Move",
              "type": "uint8"
            },
            {
              "internalType": "uint8",
              "name": "player2Move",
              "type": "uint8"
            },
            {
              "internalType": "uint8",
              "name": "winner",
              "type": "uint8"
            },
            {
              "internalType": "uint256",
              "name": "createdAt",
              "type": "uint256"
            },
            {
              "internalType": "uint256",
              "name": "revealDeadline",
              "type": "uint256"
            }
          ],
          "internalType": "struct RockPaperScissors.Game",
          "name": "",
          "type": "tuple"
        }
      ],
      "stateMutability": "view",
      "type": "function"
    },
    {
      "inputs": [
        {
          "internalType": "uint256",
          "name": "gameId",
          "type": "uint256"
        },
        {
          "internalType": "uint8",
          "name": "move2",
          "type": "uint8"
        }
      ],
      "name": "joinGame",
      "outputs": [],
      "stateMutability": "nonpayable",
      "type": "function"
    },
    {
      "inputs": [
        {
          "internalType": "uint256",
          "name": "gameId",
          "type": "uint256"
        },
        {
          "internalType": "uint8",
          "name": "move1",
          "type": "uint8"
        },
        {
          "internalType": "bytes32",
          "name": "salt1",
          "type": "bytes32"
        },
        {
          "internalType": "bytes",
          "name": "proof",
          "type": "bytes"
        }
      ],
      "name": "resolveGame",
      "outputs": [],
      "stateMutability": "nonpayable",
      "type": "function"
    },
    {
      "inputs": [
        {
          "internalType": "address",
          "name": "_verifier",
          "type": "address"
        }
      ],
      "name": "setVerifier",
      "outputs": [],
      "stateMutability": "nonpayable",
      "type": "function"
    },
    {
      "inputs": [],
      "name": "verifier",
      "outputs": [
        {
          "internalType": "contract IUltraVerifier",
          "name": "",
          "type": "address"
        }
      ],
      "stateMutability": "view",
      "type": "function"
    }
  ],
  "bytecode": "0x60a0604052348015600e575f5ffd5b50336080526080516113976100325f395f81816101fc01526103bb01526113975ff3fe608060405234801561000f575f5ffd5b50600436106100a6575f3560e01c80635437988d1161006e5780635437988d1461019c57806398be22f7146101b1578063a2f77bcc146101c4578063ca6649c5146101e4578063d5f39488146101f7578063e892569d1461021e575f5ffd5b8063117a5b90146100aa5780632b7ac3f31461013e5780632e0be39a146101695780633d6ae3a714610180578063457391e514610189575b5f5ffd5b61011f6100b8366004610fd2565b5f60208190529081526040902080546001820154600283015460038401546004850154600586015460069096015494956001600160a01b03948516959484169460ff600160a01b90950485169483811693610100810482169362010000909104909116918a565b6040516101359a9998979695949392919061101d565b60405180910390f35b600254610151906001600160a01b031681565b6040516001600160a01b039091168152602001610135565b61017260015481565b604051908152602001610135565b61017261012c81565b610172610197366004610fd2565b610231565b6101af6101aa366004611082565b6103b0565b005b6101af6101bf366004610fd2565b6104d8565b6101d76101d2366004610fd2565b6106df565b60405161013591906110af565b6101af6101f236600461117e565b6107f3565b6101517f000000000000000000000000000000000000000000000000000000000000000081565b6101af61022c3660046111a8565b6109d8565b600180545f91829190826102448361124a565b9091555060408051610140810182528281523360208083019182525f838501818152600160608601818152608087018c905260ff60a0880181905260c088015260e08701849052426101008801526101208701849052888452938390529590912084518155925194830180546001600160a01b03199081166001600160a01b0397881617909155905160028401805492831691909616908117865591519596509294919391926001600160a81b03191617600160a01b83600381111561030c5761030c610fe9565b02179055506080820151600382015560a082015160048201805460c085015160e086015160ff94851661ffff199093169290921761010091851682021762ff00001916620100009490921693909302179055820151600582015561012090910151600690910155604051838152339082907f3f0164df801ab6ce891e61b3f88fac307c68643f4ff603cc204d883c2d903b699060200160405180910390a392915050565b336001600160a01b037f0000000000000000000000000000000000000000000000000000000000000000161461041d5760405162461bcd60e51b815260206004820152600d60248201526c27b7363c903232b83637bcb2b960991b60448201526064015b60405180910390fd5b6002546001600160a01b03161561046d5760405162461bcd60e51b815260206004820152601460248201527315995c9a599a595c88185b1c9958591e481cd95d60621b6044820152606401610414565b6001600160a01b0381166104b65760405162461bcd60e51b815260206004820152601060248201526f24b73b30b634b2103b32b934b334b2b960811b6044820152606401610414565b600280546001600160a01b0319166001600160a01b0392909216919091179055565b5f81815260208190526040902060036002820154600160a01b900460ff16600381111561050757610507610fe9565b0361054c5760405162461bcd60e51b815260206004820152601560248201527411d85b5948185b1c9958591e481c995cdbdb1d9959605a1b6044820152606401610414565b600280820154600160a01b900460ff16600381111561056d5761056d610fe9565b146105ba5760405162461bcd60e51b815260206004820152601860248201527f47616d65206e6f7420696e2072657665616c20706861736500000000000000006044820152606401610414565b60028101546001600160a01b031661060a5760405162461bcd60e51b8152602060048201526013602482015272141b185e595c880c881b9bdd081a9bda5b9959606a1b6044820152606401610414565b806006015442116106535760405162461bcd60e51b8152602060048201526013602482015272111958591b1a5b99481b9bdd081c185cdcd959606a1b6044820152606401610414565b60048101805462ff000019166202000017905560028101805460ff60a01b1916600360a01b17905560405182907fbae42a65b7269ae3278df5394cdddbdafdec0880db52c5fbd30f697b577711d4905f90a26040516002815282907fc476b09c91681b1e03ac948089793c804a27569df87c784dec68c1e1bf244a4d9060200160405180910390a25050565b60408051610140810182525f80825260208201819052918101829052606081018290526080810182905260a0810182905260c0810182905260e0810182905261010081018290526101208101919091525f82815260208181526040918290208251610140810184528154815260018201546001600160a01b0390811693820193909352600282015492831693810193909352906060830190600160a01b900460ff16600381111561079257610792610fe9565b60038111156107a3576107a3610fe9565b815260038201546020820152600482015460ff808216604084015261010082048116606084015262010000909104166080820152600582015460a082015260069091015460c09091015292915050565b5f82815260208190526040902060016002820154600160a01b900460ff16600381111561082257610822610fe9565b146108645760405162461bcd60e51b815260206004820152601260248201527147616d65206e6f7420617661696c61626c6560701b6044820152606401610414565b60018101546001600160a01b031633036108c05760405162461bcd60e51b815260206004820152601c60248201527f43616e6e6f7420706c617920616761696e737420796f757273656c66000000006044820152606401610414565b60028101546001600160a01b03161561091b5760405162461bcd60e51b815260206004820152601c60248201527f47616d6520616c7265616479206861732074776f20706c6179657273000000006044820152606401610414565b60038260ff161061093e5760405162461bcd60e51b815260040161041490611262565b6002810180546001600160a01b0319163317905560048101805460ff84166101000261ff001990911617905561097661012c426112a3565b6006820181905560028201805460ff60a01b1916600160a11b1790556040805160ff8516815260208101929092528051339286927f128a80af85664814dd80bbc3309ffd638367a8025f273173959f5f527a308e3192918290030190a3505050565b5f8581526020819052604090206003810154610a365760405162461bcd60e51b815260206004820152601a60248201527f506c617965722031206d75737420636f6d6d69742066697273740000000000006044820152606401610414565b60036002820154600160a01b900460ff166003811115610a5857610a58610fe9565b03610a9d5760405162461bcd60e51b815260206004820152601560248201527411d85b5948185b1c9958591e481c995cdbdb1d9959605a1b6044820152606401610414565b600280820154600160a01b900460ff166003811115610abe57610abe610fe9565b14610b0b5760405162461bcd60e51b815260206004820152601860248201527f506c617965722032206d757374206a6f696e20666972737400000000000000006044820152606401610414565b8060060154421115610b515760405162461bcd60e51b815260206004820152600f60248201526e111958591b1a5b99481c185cdcd959608a1b6044820152606401610414565b60038560ff1610610b745760405162461bcd60e51b815260040161041490611262565b6004810154600361010090910460ff1610610bc95760405162461bcd60e51b8152602060048201526015602482015274141b185e595c880c881b5bdd99481b9bdd081cd95d605a1b6044820152606401610414565b6040516001600160f81b031960f887901b166020820152602181018590525f9060410160405160208183030381529060405280519060200120905080826003015414610c575760405162461bcd60e51b815260206004820152601e60248201527f496e76616c696420636f6d6d69746d656e7420666f7220706c617965723100006044820152606401610414565b60048201805460ff191660ff8816908117909155600183015460408051928352602083018890526001600160a01b039091169189917fdac18dff2f3d2080745ccfa45dda84dfdbf6986461b1b1aaeea6042a4a0f724c910160405180910390a36002546001600160a01b031615610e36575f610ce4878460040160019054906101000a900460ff16610e48565b604080516003808252608082019092529192505f9190602082016060803683370190505090508760ff165f1b815f81518110610d2257610d226112b6565b60209081029190910101526004840154815161010090910460ff169082906001908110610d5157610d516112b6565b6020026020010181815250508160ff165f1b81600281518110610d7657610d766112b6565b6020908102919091010152600254604051633a94343960e21b81526001600160a01b039091169063ea50d0e490610db5908990899086906004016112ca565b602060405180830381865afa158015610dd0573d5f5f3e3d5ffd5b505050506040513d601f19601f82011682018060405250810190610df49190611342565b610e335760405162461bcd60e51b815260206004820152601060248201526f24b73b30b634b2102d2590383937b7b360811b6044820152606401610414565b50505b610e3f87610ecc565b50505050505050565b5f8160ff168360ff1603610e5d57505f610ec6565b60ff8316158015610e7157508160ff166002145b15610e7e57506001610ec6565b8260ff166001148015610e92575060ff8216155b15610e9f57506001610ec6565b8260ff166002148015610eb557508160ff166001145b15610ec257506001610ec6565b5060025b92915050565b5f818152602081905260409020600481015460ff90811614801590610efe5750600481015460ff610100909104811614155b610f435760405162461bcd60e51b8152602060048201526016602482015275109bdd1a081b5bdd995cc81b5d5cdd081899481cd95d60521b6044820152606401610414565b60048101545f90610f5f9060ff80821691610100900416610e48565b60048301805462ff000019166201000060ff84160217905560028301805491925060039160ff60a01b1916600160a01b83021790555060405160ff8216815283907fc476b09c91681b1e03ac948089793c804a27569df87c784dec68c1e1bf244a4d9060200160405180910390a2505050565b5f60208284031215610fe2575f5ffd5b5035919050565b634e487b7160e01b5f52602160045260245ffd5b6004811061101957634e487b7160e01b5f52602160045260245ffd5b9052565b8a81526001600160a01b038a81166020830152891660408201526101408101611049606083018a610ffd565b608082019790975260ff95861660a082015293851660c08501529190931660e08301526101008201929092526101200152949350505050565b5f60208284031215611092575f5ffd5b81356001600160a01b03811681146110a8575f5ffd5b9392505050565b815181526020808301516101408301916110d3908401826001600160a01b03169052565b5060408301516110ee60408401826001600160a01b03169052565b5060608301516111016060840182610ffd565b506080830151608083015260a083015161112060a084018260ff169052565b5060c083015161113560c084018260ff169052565b5060e083015161114a60e084018260ff169052565b5061010083015161010083015261012083015161012083015292915050565b803560ff81168114611179575f5ffd5b919050565b5f5f6040838503121561118f575f5ffd5b8235915061119f60208401611169565b90509250929050565b5f5f5f5f5f608086880312156111bc575f5ffd5b853594506111cc60208701611169565b935060408601359250606086013567ffffffffffffffff8111156111ee575f5ffd5b8601601f810188136111fe575f5ffd5b803567ffffffffffffffff811115611214575f5ffd5b886020828401011115611225575f5ffd5b959894975092955050506020019190565b634e487b7160e01b5f52601160045260245ffd5b5f6001820161125b5761125b611236565b5060010190565b60208082526021908201527f496e76616c6964206d6f766520286d75737420626520302c20312c206f7220326040820152602960f81b606082015260800190565b80820180821115610ec657610ec6611236565b634e487b7160e01b5f52603260045260245ffd5b60408152826040820152828460608301375f606084830101525f601f19601f85011682016060810160608483030160208501528085518083526080840191506020870193505f92505b808310156113365783518252602082019150602084019350600183019250611313565b50979650505050505050565b5f60208284031215611352575f5ffd5b815180151581146110a8575f5ffdfea2646970667358221220d7cc788e8bc3f2e026c8fc0d872cdd475c8e70065a15b317f05c3bfd2a50265064736f6c634300081b0033",
  "linkReferences": {},
  "deployedLinkReferences": {},
  "immutableReferences": {
    "55": [
      {
        "length": 32,
        "start": 508
      },
      {
        "length": 32,
        "start": 955
      }
    ]
  },
  "inputSourceName": "project/contracts/RockPaperScissors.sol",
  "buildInfoId": "solc-0_8_27-87cccc4d767900253e7caac52de829e57df06fb8"
}