{
  "_format": "hh3-artifact-1",
  "contractName": "RockPaperScissors",
  "sourceName": "contracts/RockPaperScissors.sol",
  "abi": [
    {
      "anonymous": false,
      "inputs": [
        {
          "indexed": true,
          "internalType": "uint256",
          "name": "gameId",
          "type": "uint256"
        },
        {
          "indexed": true,
          "internalType": "address",
          "name": "player1",
          "type": "address"
        }
      ],
      "name": "GameCreated",
      "type": "event"
    },
    {
      "anonymous": false,
      "inputs": [
        {
          "indexed": true,
          "internalType": "uint256",
          "name": "gameId",
          "type": "uint256"
        },
        {
          "indexed": false,
          "internalType": "uint8",
          "name": "winner",
          "type": "uint8"
        }
      ],
      "name": "GameResolved",
      "type": "event"
    },
    {
      "anonymous": false,
      "inputs": [
        {
          "indexed": true,
          "internalType": "uint256",
          "name": "gameId",
          "type": "uint256"
        },
        {
          "indexed": true,
          "internalType": "address",
          "name": "player",
          "type": "address"
        },
        {
          "indexed": false,
          "internalType": "bytes32",
          "name": "commitment",
          "type": "bytes32"
        }
      ],
      "name": "MoveCommitted",
      "type": "event"
    },
    {
      "anonymous": false,
      "inputs": [
        {
          "indexed": true,
          "internalType": "uint256",
          "name": "gameId",
          "type": "uint256"
        },
        {
          "indexed": true,
          "internalType": "address",
          "name": "player",
          "type": "address"
        },
        {
          "indexed": false,
          "internalType": "uint8",
          "name": "move",
          "type": "uint8"
        },
        {
          "indexed": false,
          "internalType": "bytes32",
          "name": "salt",
          "type": "bytes32"
        }
      ],
      "name": "MoveRevealed",
      "type": "event"
    },
    {
      "anonymous": false,
      "inputs": [
        {
          "indexed": true,
          "internalType": "uint256",
          "name": "gameId",
          "type": "uint256"
        },
        {
          "indexed": true,
          "internalType": "address",
          "name": "player2",
          "type": "address"
        }
      ],
      "name": "PlayerJoined",
      "type": "event"
    },
    {
      "inputs": [
        {
          "internalType": "uint256",
          "name": "gameId",
          "type": "uint256"
        },
        {
          "internalType": "bytes32",
          "name": "commitment",
          "type": "bytes32"
        }
      ],
      "name": "commitMove",
      "outputs": [],
      "stateMutability": "nonpayable",
      "type": "function"
    },
    {
      "inputs": [],
      "name": "createGame",
      "outputs": [
        {
          "internalType": "uint256",
          "name": "",
          "type": "uint256"
        }
      ],
      "stateMutability": "nonpayable",
      "type": "function"
    },
    {
      "inputs": [],
      "name": "gameCounter",
      "outputs": [
        {
          "internalType": "uint256",
          "name": "",
          "type": "uint256"
        }
      ],
      "stateMutability": "view",
      "type": "function"
    },
    {
      "inputs": [
        {
          "internalType": "uint256",
          "name": "",
          "type": "uint256"
        }
      ],
      "name": "games",
      "outputs": [
        {
          "internalType": "uint256",
          "name": "gameId",
          "type": "uint256"
        },
        {
          "internalType": "address",
          "name": "player1",
          "type": "address"
        },
        {
          "internalType": "address",
          "name": "player2",
          "type": "address"
        },
        {
          "internalType": "enum RockPaperScissors.GameStatus",
          "name": "status",
          "type": "uint8"
        },
        {
          "internalType": "bytes32",
          "name": "player1Commitment",
          "type": "bytes32"
        },
        {
          "internalType": "bytes32",
          "name": "player2Commitment",
          "type": "bytes32"
        },
        {
          "internalType": "uint8",
          "name": "player1Move",
          "type": "uint8"
        },
        {
          "internalType": "uint8",
          "name": "player2Move",
          "type": "uint8"
        },
        {
          "internalType": "uint8",
          "name": "winner",
          "type": "uint8"
        },
        {
          "internalType": "uint256",
          "name": "createdAt",
          "type": "uint256"
        },
        {
          "internalType": "uint256",
          "name": "committedAt",
          "type": "uint256"
        }
      ],
      "stateMutability": "view",
      "type": "function"
    },
    {
      "inputs": [
        {
          "internalType": "uint256",
          "name": "gameId",
          "type": "uint256"
        }
      ],
      "name": "getGame",
      "outputs": [
        {
          "components": [
            {
              "internalType": "uint256",
              "name": "gameId",
              "type": "uint256"
            },
            {
              "internalType": "address",
              "name": "player1",
              "type": "address"
            },
            {
              "internalType": "address",
              "name": "player2",
              "type": "address"
            },
            {
              "internalType": "enum RockPaperScissors.GameStatus",
              "name": "status",
              "type": "uint8"
            },
            {
              "internalType": "bytes32",
              "name": "player1Commitment",
              "type": "bytes32"
            },
            {
              "internalType": "bytes32",
              "name": "player2Commitment",
              "type": "bytes32"
            },
            {
              "internalType": "uint8",
              "name": "player1Move",
              "type": "uint8"
            },
            {
              "internalType": "uint8",
              "name": "player2Move",
              "type": "uint8"
            },
            {
              "internalType": "uint8",
              "name": "winner",
              "type": "uint8"
            },
            {
              "internalType": "uint256",
              "name": "createdAt",
              "type": "uint256"
            },
            {
              "internalType": "uint256",
              "name": "committedAt",
              "type": "uint256"
            }
          ],
          "internalType": "struct RockPaperScissors.Game",
          "name": "",
          "type": "tuple"
        }
      ],
      "stateMutability": "view",
      "type": "function"
    },
    {
      "inputs": [
        {
          "internalType": "uint256",
          "name": "gameId",
          "type": "uint256"
        }
      ],
      "name": "joinGame",
      "outputs": [],
      "stateMutability": "nonpayable",
      "type": "function"
    },
    {
      "inputs": [
        {
          "internalType": "uint256",
          "name": "gameId",
          "type": "uint256"
        },
        {
          "internalType": "uint8",
          "name": "move",
          "type": "uint8"
        },
        {
          "internalType": "bytes32",
          "name": "salt",
          "type": "bytes32"
        },
        {
          "internalType": "bytes",
          "name": "",
          "type": "bytes"
        }
      ],
      "name": "revealMove",
      "outputs": [],
      "stateMutability": "nonpayable",
      "type": "function"
    }
  ],
  "bytecode": "0x608060405234801561000f575f80fd5b50610f988061001d5f395ff3fe608060405234801561000f575f80fd5b506004361061007a575f3560e01c80637255d729116100585780637255d7291461014457806377158ba21461014c578063a2f77bcc1461015f578063efaa55a01461017f575f80fd5b8063117a5b901461007e57806326826f62146101185780632e0be39a1461012d575b5f80fd5b6100f861008c366004610d16565b5f602081905290815260409020805460018201546002830154600384015460048501546005860154600687015460079097015495966001600160a01b03958616969585169560ff600160a01b90960486169583811693610100810482169362010000909104909116918b565b60405161010f9b9a99989796959493929190610d61565b60405180910390f35b61012b610126366004610dcf565b610192565b005b61013660015481565b60405190815260200161010f565b6101366103e7565b61012b61015a366004610def565b61056f565b61017261016d366004610d16565b6108e4565b60405161010f9190610e82565b61012b61018d366004610d16565b610a0a565b5f82815260208190526040902060018101546001600160a01b03163314806101c6575060028101546001600160a01b031633145b6102135760405162461bcd60e51b81526020600482015260196024820152784e6f74206120706c6179657220696e20746869732067616d6560381b60448201526064015b60405180910390fd5b60016002820154600160a01b900460ff16600381111561023557610235610d2d565b146102825760405162461bcd60e51b815260206004820152601e60248201527f47616d65206e6f7420726561647920666f7220636f6d6d69746d656e74730000604482015260640161020a565b60028101546001600160a01b03166102d55760405162461bcd60e51b815260206004820152601660248201527547616d65206e656564732074776f20706c617965727360501b604482015260640161020a565b60018101546001600160a01b0316330361033b5760038101541561032f5760405162461bcd60e51b8152602060048201526011602482015270105b1c9958591e4818dbdb5b5a5d1d1959607a1b604482015260640161020a565b60038101829055610389565b6004810154156103815760405162461bcd60e51b8152602060048201526011602482015270105b1c9958591e4818dbdb5b5a5d1d1959607a1b604482015260640161020a565b600481018290555b604051828152339084907f554a5d15a082f1f9f6e4aa87ae9c371a1374441e761d7f795ed28d4588d6b0089060200160405180910390a36003810154158015906103d65750600481015415155b156103e2574260078201555b505050565b600180545f91829190826103fa83610f3e565b9091555060408051610160810182528281523360208083019182525f838501818152606085018281526080860183905260a0860183905260ff60c0870181905260e08701526101008601839052426101208701526101408601839052878352928290529490208351815591516001830180546001600160a01b03199081166001600160a01b039384161790915594516002840180549687169190921690811782559151959650929491939192916001600160a81b03191617600160a01b8360038111156104c9576104c9610d2d565b02179055506080820151600382015560a0820151600482015560c082015160058201805460e08501516101008087015160ff908116620100000262ff00001993821690920261ffff199094169516949094179190911716919091179055610120820151600682015561014090910151600790910155604051339082907fc3e0f84839dc888c892a013d10c8f9d6dc05a21a879d0ce468ca558013e9121c905f90a3919050565b5f85815260208190526040902060018101546001600160a01b03163314806105a3575060028101546001600160a01b031633145b6105eb5760405162461bcd60e51b81526020600482015260196024820152784e6f74206120706c6179657220696e20746869732067616d6560381b604482015260640161020a565b6003810154158015906106015750600481015415155b61064d5760405162461bcd60e51b815260206004820152601e60248201527f426f746820706c6179657273206d75737420636f6d6d69742066697273740000604482015260640161020a565b60038560ff16106106aa5760405162461bcd60e51b815260206004820152602160248201527f496e76616c6964206d6f766520286d75737420626520302c20312c206f7220326044820152602960f81b606482015260840161020a565b6040516001600160f81b031960f887901b166020820152602181018590525f9060410160408051601f19818403018152919052805160209091012060018301549091506001600160a01b031633036107af578082600301541461074f5760405162461bcd60e51b815260206004820152601e60248201527f496e76616c696420636f6d6d69746d656e7420666f7220706c61796572310000604482015260640161020a565b600582015460ff908116146107995760405162461bcd60e51b815260206004820152601060248201526f105b1c9958591e481c995d99585b195960821b604482015260640161020a565b60058201805460ff191660ff8816179055610868565b808260040154146108025760405162461bcd60e51b815260206004820152601e60248201527f496e76616c696420636f6d6d69746d656e7420666f7220706c61796572320000604482015260640161020a565b600582015460ff6101009091048116146108515760405162461bcd60e51b815260206004820152601060248201526f105b1c9958591e481c995d99585b195960821b604482015260640161020a565b60058201805461ff00191661010060ff8916021790555b6040805160ff8816815260208101879052339189917fdac18dff2f3d2080745ccfa45dda84dfdbf6986461b1b1aaeea6042a4a0f724c910160405180910390a3600582015460ff908116148015906108cd5750600582015460ff610100909104811614155b156108db576108db87610b85565b50505050505050565b60408051610160810182525f80825260208201819052918101829052606081018290526080810182905260a0810182905260c0810182905260e08101829052610100810182905261012081018290526101408101919091525f82815260208181526040918290208251610160810184528154815260018201546001600160a01b0390811693820193909352600282015492831693810193909352906060830190600160a01b900460ff16600381111561099f5761099f610d2d565b60038111156109b0576109b0610d2d565b81526003820154602082015260048201546040820152600582015460ff8082166060840152610100820481166080840152620100009091041660a0820152600682015460c082015260079091015460e09091015292915050565b5f818152602081905260408120906002820154600160a01b900460ff166003811115610a3857610a38610d2d565b14610a7a5760405162461bcd60e51b815260206004820152601260248201527147616d65206e6f7420617661696c61626c6560701b604482015260640161020a565b60018101546001600160a01b03163303610ad65760405162461bcd60e51b815260206004820152601c60248201527f43616e6e6f7420706c617920616761696e737420796f757273656c6600000000604482015260640161020a565b60028101546001600160a01b031615610b315760405162461bcd60e51b815260206004820152601c60248201527f47616d6520616c7265616479206861732074776f20706c617965727300000000604482015260640161020a565b6002810180546001600160a81b0319163360ff60a01b19811691909117600160a01b1790915560405183907f87969bc7faf902221a147b95ceba76e011c5efb0339a0a8ee7a2bb82d9cfbbd6905f90a35050565b5f818152602081905260409020600581015460ff90811614801590610bb75750600581015460ff610100909104811614155b610c035760405162461bcd60e51b815260206004820152601b60248201527f426f7468206d6f766573206d7573742062652072657665616c65640000000000604482015260640161020a565b60058101545f90610c1f9060ff80821691610100900416610c92565b60058301805462ff000019166201000060ff84160217905560028301805491925060039160ff60a01b1916600160a01b83021790555060405160ff8216815283907fc476b09c91681b1e03ac948089793c804a27569df87c784dec68c1e1bf244a4d9060200160405180910390a2505050565b5f8160ff168360ff1603610ca757505f610d10565b60ff8316158015610cbb57508160ff166002145b15610cc857506001610d10565b8260ff166001148015610cdc575060ff8216155b15610ce957506001610d10565b8260ff166002148015610cff57508160ff166001145b15610d0c57506001610d10565b5060025b92915050565b5f60208284031215610d26575f80fd5b5035919050565b634e487b7160e01b5f52602160045260245ffd5b60048110610d5d57634e487b7160e01b5f52602160045260245ffd5b9052565b8b81526001600160a01b038b811660208301528a1660408201526101608101610d8d606083018b610d41565b608082019890985260a081019690965260ff94851660c087015292841660e0860152921661010084015261012083019190915261014090910152949350505050565b5f8060408385031215610de0575f80fd5b50508035926020909101359150565b5f805f805f60808688031215610e03575f80fd5b85359450602086013560ff81168114610e1a575f80fd5b935060408601359250606086013567ffffffffffffffff80821115610e3d575f80fd5b818801915088601f830112610e50575f80fd5b813581811115610e5e575f80fd5b896020828501011115610e6f575f80fd5b9699959850939650602001949392505050565b81518152602080830151610160830191610ea6908401826001600160a01b03169052565b506040830151610ec160408401826001600160a01b03169052565b506060830151610ed46060840182610d41565b506080830151608083015260a083015160a083015260c0830151610efd60c084018260ff169052565b5060e0830151610f1260e084018260ff169052565b506101008381015160ff1690830152610120808401519083015261014092830151929091019190915290565b5f60018201610f5b57634e487b7160e01b5f52601160045260245ffd5b506001019056fea2646970667358221220dcddca3b8577855e448cec7b670e6d319db545a4839701b0957439224ad335b064736f6c63430008140033",
  "linkReferences": {},
  "deployedLinkReferences": {},
  "immutableReferences": {},
  "inputSourceName": "project/contracts/RockPaperScissors.sol",
  "buildInfoId": "solc-0_8_20-2afd7f16b0aec7541fbbefd7aea50c598a175a2c"
}